{
  "contractName": "SolnSquareVerifier",
  "abi": [
    {
      "inputs": [
        {
          "internalType": "address",
          "name": "verifier",
          "type": "address"
        }
      ],
      "payable": false,
      "stateMutability": "nonpayable",
      "type": "constructor"
    },
    {
      "anonymous": false,
      "inputs": [
        {
          "indexed": true,
          "internalType": "address",
          "name": "owner",
          "type": "address"
        },
        {
          "indexed": true,
          "internalType": "address",
          "name": "approved",
          "type": "address"
        },
        {
          "indexed": true,
          "internalType": "uint256",
          "name": "tokenId",
          "type": "uint256"
        }
      ],
      "name": "Approval",
      "type": "event"
    },
    {
      "anonymous": false,
      "inputs": [
        {
          "indexed": true,
          "internalType": "address",
          "name": "owner",
          "type": "address"
        },
        {
          "indexed": true,
          "internalType": "address",
          "name": "operator",
          "type": "address"
        },
        {
          "indexed": false,
          "internalType": "bool",
          "name": "approved",
          "type": "bool"
        }
      ],
      "name": "ApprovalForAll",
      "type": "event"
    },
    {
      "anonymous": false,
      "inputs": [
        {
          "indexed": false,
          "internalType": "address",
          "name": "pauser",
          "type": "address"
        }
      ],
      "name": "ContractIsNotPaused",
      "type": "event"
    },
    {
      "anonymous": false,
      "inputs": [
        {
          "indexed": false,
          "internalType": "address",
          "name": "pauser",
          "type": "address"
        }
      ],
      "name": "ContractIsPaused",
      "type": "event"
    },
    {
      "anonymous": false,
      "inputs": [
        {
          "indexed": true,
          "internalType": "address",
          "name": "previousOwnerAddress",
          "type": "address"
        },
        {
          "indexed": true,
          "internalType": "address",
          "name": "newOwnerAddress",
          "type": "address"
        }
      ],
      "name": "OwnershipTransferred",
      "type": "event"
    },
    {
      "anonymous": false,
      "inputs": [
        {
          "indexed": true,
          "internalType": "address",
          "name": "from",
          "type": "address"
        },
        {
          "indexed": true,
          "internalType": "address",
          "name": "to",
          "type": "address"
        },
        {
          "indexed": true,
          "internalType": "uint256",
          "name": "tokenId",
          "type": "uint256"
        }
      ],
      "name": "Transfer",
      "type": "event"
    },
    {
      "anonymous": false,
      "inputs": [
        {
          "indexed": false,
          "internalType": "address",
          "name": "from",
          "type": "address"
        },
        {
          "indexed": false,
          "internalType": "uint256",
          "name": "index1",
          "type": "uint256"
        }
      ],
      "name": "solutionAdded",
      "type": "event"
    },
    {
      "constant": false,
      "inputs": [
        {
          "internalType": "bytes32",
          "name": "_myid",
          "type": "bytes32"
        },
        {
          "internalType": "string",
          "name": "_result",
          "type": "string"
        }
      ],
      "name": "__callback",
      "outputs": [],
      "payable": false,
      "stateMutability": "nonpayable",
      "type": "function"
    },
    {
      "constant": false,
      "inputs": [
        {
          "internalType": "bytes32",
          "name": "_myid",
          "type": "bytes32"
        },
        {
          "internalType": "string",
          "name": "_result",
          "type": "string"
        },
        {
          "internalType": "bytes",
          "name": "_proof",
          "type": "bytes"
        }
      ],
      "name": "__callback",
      "outputs": [],
      "payable": false,
      "stateMutability": "nonpayable",
      "type": "function"
    },
    {
      "constant": false,
      "inputs": [
        {
          "internalType": "address",
          "name": "to",
          "type": "address"
        },
        {
          "internalType": "uint256",
          "name": "tokenId",
          "type": "uint256"
        }
      ],
      "name": "approve",
      "outputs": [],
      "payable": false,
      "stateMutability": "nonpayable",
      "type": "function"
    },
    {
      "constant": true,
      "inputs": [
        {
          "internalType": "address",
          "name": "owner",
          "type": "address"
        }
      ],
      "name": "balanceOf",
      "outputs": [
        {
          "internalType": "uint256",
          "name": "",
          "type": "uint256"
        }
      ],
      "payable": false,
      "stateMutability": "view",
      "type": "function"
    },
    {
      "constant": true,
      "inputs": [],
      "name": "baseTokenURI",
      "outputs": [
        {
          "internalType": "string",
          "name": "",
          "type": "string"
        }
      ],
      "payable": false,
      "stateMutability": "view",
      "type": "function"
    },
    {
      "constant": true,
      "inputs": [
        {
          "internalType": "uint256",
          "name": "tokenId",
          "type": "uint256"
        }
      ],
      "name": "getApproved",
      "outputs": [
        {
          "internalType": "address",
          "name": "",
          "type": "address"
        }
      ],
      "payable": false,
      "stateMutability": "view",
      "type": "function"
    },
    {
      "constant": true,
      "inputs": [],
      "name": "getOwner",
      "outputs": [
        {
          "internalType": "address",
          "name": "",
          "type": "address"
        }
      ],
      "payable": false,
      "stateMutability": "view",
      "type": "function"
    },
    {
      "constant": true,
      "inputs": [
        {
          "internalType": "address",
          "name": "owner",
          "type": "address"
        },
        {
          "internalType": "address",
          "name": "operator",
          "type": "address"
        }
      ],
      "name": "isApprovedForAll",
      "outputs": [
        {
          "internalType": "bool",
          "name": "",
          "type": "bool"
        }
      ],
      "payable": false,
      "stateMutability": "view",
      "type": "function"
    },
    {
      "constant": false,
      "inputs": [
        {
          "internalType": "address",
          "name": "to",
          "type": "address"
        },
        {
          "internalType": "uint256",
          "name": "tokenId",
          "type": "uint256"
        }
      ],
      "name": "mint",
      "outputs": [
        {
          "internalType": "bool",
          "name": "",
          "type": "bool"
        }
      ],
      "payable": false,
      "stateMutability": "nonpayable",
      "type": "function"
    },
    {
      "constant": true,
      "inputs": [],
      "name": "name",
      "outputs": [
        {
          "internalType": "string",
          "name": "",
          "type": "string"
        }
      ],
      "payable": false,
      "stateMutability": "view",
      "type": "function"
    },
    {
      "constant": true,
      "inputs": [
        {
          "internalType": "uint256",
          "name": "tokenId",
          "type": "uint256"
        }
      ],
      "name": "ownerOf",
      "outputs": [
        {
          "internalType": "address",
          "name": "",
          "type": "address"
        }
      ],
      "payable": false,
      "stateMutability": "view",
      "type": "function"
    },
    {
      "constant": false,
      "inputs": [
        {
          "internalType": "address",
          "name": "from",
          "type": "address"
        },
        {
          "internalType": "address",
          "name": "to",
          "type": "address"
        },
        {
          "internalType": "uint256",
          "name": "tokenId",
          "type": "uint256"
        }
      ],
      "name": "safeTransferFrom",
      "outputs": [],
      "payable": false,
      "stateMutability": "nonpayable",
      "type": "function"
    },
    {
      "constant": false,
      "inputs": [
        {
          "internalType": "address",
          "name": "from",
          "type": "address"
        },
        {
          "internalType": "address",
          "name": "to",
          "type": "address"
        },
        {
          "internalType": "uint256",
          "name": "tokenId",
          "type": "uint256"
        },
        {
          "internalType": "bytes",
          "name": "_data",
          "type": "bytes"
        }
      ],
      "name": "safeTransferFrom",
      "outputs": [],
      "payable": false,
      "stateMutability": "nonpayable",
      "type": "function"
    },
    {
      "constant": false,
      "inputs": [
        {
          "internalType": "address",
          "name": "to",
          "type": "address"
        },
        {
          "internalType": "bool",
          "name": "approved",
          "type": "bool"
        }
      ],
      "name": "setApprovalForAll",
      "outputs": [],
      "payable": false,
      "stateMutability": "nonpayable",
      "type": "function"
    },
    {
      "constant": false,
      "inputs": [
        {
          "internalType": "bool",
          "name": "isPause",
          "type": "bool"
        }
      ],
      "name": "setPaused",
      "outputs": [],
      "payable": false,
      "stateMutability": "nonpayable",
      "type": "function"
    },
    {
      "constant": true,
      "inputs": [],
      "name": "squareVerifier",
      "outputs": [
        {
          "internalType": "contract SquareVerifier",
          "name": "",
          "type": "address"
        }
      ],
      "payable": false,
      "stateMutability": "view",
      "type": "function"
    },
    {
      "constant": true,
      "inputs": [
        {
          "internalType": "bytes4",
          "name": "interfaceId",
          "type": "bytes4"
        }
      ],
      "name": "supportsInterface",
      "outputs": [
        {
          "internalType": "bool",
          "name": "",
          "type": "bool"
        }
      ],
      "payable": false,
      "stateMutability": "view",
      "type": "function"
    },
    {
      "constant": true,
      "inputs": [],
      "name": "symbol",
      "outputs": [
        {
          "internalType": "string",
          "name": "",
          "type": "string"
        }
      ],
      "payable": false,
      "stateMutability": "view",
      "type": "function"
    },
    {
      "constant": true,
      "inputs": [
        {
          "internalType": "uint256",
          "name": "index",
          "type": "uint256"
        }
      ],
      "name": "tokenByIndex",
      "outputs": [
        {
          "internalType": "uint256",
          "name": "",
          "type": "uint256"
        }
      ],
      "payable": false,
      "stateMutability": "view",
      "type": "function"
    },
    {
      "constant": true,
      "inputs": [
        {
          "internalType": "address",
          "name": "owner",
          "type": "address"
        },
        {
          "internalType": "uint256",
          "name": "index",
          "type": "uint256"
        }
      ],
      "name": "tokenOfOwnerByIndex",
      "outputs": [
        {
          "internalType": "uint256",
          "name": "",
          "type": "uint256"
        }
      ],
      "payable": false,
      "stateMutability": "view",
      "type": "function"
    },
    {
      "constant": true,
      "inputs": [
        {
          "internalType": "uint256",
          "name": "tokenId",
          "type": "uint256"
        }
      ],
      "name": "tokenURI",
      "outputs": [
        {
          "internalType": "string",
          "name": "",
          "type": "string"
        }
      ],
      "payable": false,
      "stateMutability": "view",
      "type": "function"
    },
    {
      "constant": true,
      "inputs": [],
      "name": "totalSupply",
      "outputs": [
        {
          "internalType": "uint256",
          "name": "",
          "type": "uint256"
        }
      ],
      "payable": false,
      "stateMutability": "view",
      "type": "function"
    },
    {
      "constant": false,
      "inputs": [
        {
          "internalType": "address",
          "name": "from",
          "type": "address"
        },
        {
          "internalType": "address",
          "name": "to",
          "type": "address"
        },
        {
          "internalType": "uint256",
          "name": "tokenId",
          "type": "uint256"
        }
      ],
      "name": "transferFrom",
      "outputs": [],
      "payable": false,
      "stateMutability": "nonpayable",
      "type": "function"
    },
    {
      "constant": false,
      "inputs": [
        {
          "internalType": "address",
          "name": "newOwner",
          "type": "address"
        }
      ],
      "name": "transferOwnership",
      "outputs": [],
      "payable": false,
      "stateMutability": "nonpayable",
      "type": "function"
    },
    {
      "constant": false,
      "inputs": [
        {
          "internalType": "uint256",
          "name": "_index",
          "type": "uint256"
        },
        {
          "internalType": "address",
          "name": "_address",
          "type": "address"
        },
        {
          "internalType": "uint256[2]",
          "name": "A",
          "type": "uint256[2]"
        },
        {
          "internalType": "uint256[2][2]",
          "name": "B",
          "type": "uint256[2][2]"
        },
        {
          "internalType": "uint256[2]",
          "name": "C",
          "type": "uint256[2]"
        },
        {
          "internalType": "uint256[2]",
          "name": "INPUT",
          "type": "uint256[2]"
        }
      ],
      "name": "addSolution",
      "outputs": [],
      "payable": false,
      "stateMutability": "nonpayable",
      "type": "function"
    },
    {
      "constant": true,
      "inputs": [],
      "name": "getSolutionsCount",
      "outputs": [
        {
          "internalType": "uint256",
          "name": "",
          "type": "uint256"
        }
      ],
      "payable": false,
      "stateMutability": "view",
      "type": "function"
    },
    {
      "constant": false,
      "inputs": [
        {
          "internalType": "uint256[2]",
          "name": "A",
          "type": "uint256[2]"
        },
        {
          "internalType": "uint256[2][2]",
          "name": "B",
          "type": "uint256[2][2]"
        },
        {
          "internalType": "uint256[2]",
          "name": "C",
          "type": "uint256[2]"
        },
        {
          "internalType": "uint256[2]",
          "name": "INPUT",
          "type": "uint256[2]"
        },
        {
          "internalType": "uint256",
          "name": "ID",
          "type": "uint256"
        }
      ],
      "name": "mintToken",
      "outputs": [
        {
          "internalType": "bool",
          "name": "",
          "type": "bool"
        }
      ],
      "payable": false,
      "stateMutability": "nonpayable",
      "type": "function"
    }
  ],
  "bytecode": "0x60806040523480156200001157600080fd5b5060405162004369380380620043698339818101604052620000379190810190620003d3565b60405180606001604052806025815260200162004305602591396040518060400160405280600481526020017f4452454d000000000000000000000000000000000000000000000000000000008152506040518060600160405280603f81526020016200432a603f9139336000806101000a81548173ffffffffffffffffffffffffffffffffffffffff021916908373ffffffffffffffffffffffffffffffffffffffff1602179055506000809054906101000a900473ffffffffffffffffffffffffffffffffffffffff1673ffffffffffffffffffffffffffffffffffffffff16600073ffffffffffffffffffffffffffffffffffffffff167f8be0079c531659141344cd1fd0a4f28419497f9722a3daafe3b4186f6b6457e060405160405180910390a360008060146101000a81548160ff0219169083151502179055506200018f6301ffc9a760e01b6200026d60201b60201c565b620001a76380ac58cd60e01b6200026d60201b60201c565b620001bf63780e9d6360e01b6200026d60201b60201c565b82600f9080519060200190620001d79291906200030d565b508160109080519060200190620001f09291906200030d565b508060119080519060200190620002099291906200030d565b5062000222635b5e139f60e01b6200026d60201b60201c565b50505080601460006101000a81548173ffffffffffffffffffffffffffffffffffffffff021916908373ffffffffffffffffffffffffffffffffffffffff160217905550506200044d565b63ffffffff60e01b817bffffffffffffffffffffffffffffffffffffffffffffffffffffffff19161415620002a157600080fd5b6001806000837bffffffffffffffffffffffffffffffffffffffffffffffffffffffff19167bffffffffffffffffffffffffffffffffffffffffffffffffffffffff1916815260200190815260200160002060006101000a81548160ff02191690831515021790555050565b828054600181600116156101000203166002900490600052602060002090601f016020900481019282601f106200035057805160ff191683800117855562000381565b8280016001018555821562000381579182015b828111156200038057825182559160200191906001019062000363565b5b50905062000390919062000394565b5090565b620003b991905b80821115620003b55760008160009055506001016200039b565b5090565b90565b600081519050620003cd8162000433565b92915050565b600060208284031215620003e657600080fd5b6000620003f684828501620003bc565b91505092915050565b60006200040c8262000413565b9050919050565b600073ffffffffffffffffffffffffffffffffffffffff82169050919050565b6200043e81620003ff565b81146200044a57600080fd5b50565b613ea8806200045d6000396000f3fe608060405234801561001057600080fd5b50600436106101a95760003560e01c80634f6ccce7116100f9578063b0bf8aec11610097578063d547cfb711610071578063d547cfb7146104f0578063e985e9c51461050e578063f2fde38b1461053e578063f4c5d3541461055a576101a9565b8063b0bf8aec14610488578063b88d4fde146104a4578063c87b56dd146104c0576101a9565b806370a08231116100d357806370a0823114610400578063893d20e81461043057806395d89b411461044e578063a22cb4651461046c576101a9565b80634f6ccce7146103705780636352211e146103a05780636a43afae146103d0576101a9565b806323b872dd1161016657806338bbfa501161014057806338bbfa50146102ea57806340c10f191461030657806342842e0e146103365780634c1b1c9314610352576101a9565b806323b872dd1461028257806327dc297e1461029e5780632f745c59146102ba576101a9565b806301ffc9a7146101ae57806306fdde03146101de578063081812fc146101fc578063095ea7b31461022c57806316c38b3c1461024857806318160ddd14610264575b600080fd5b6101c860048036036101c39190810190612f2e565b610578565b6040516101d591906138c9565b60405180910390f35b6101e66105e0565b6040516101f391906138ff565b60405180910390f35b61021660048036036102119190810190612f80565b610682565b604051610223919061381e565b60405180910390f35b61024660048036036102419190810190612d53565b6106bf565b005b610262600480360361025d9190810190612e09565b61092e565b005b61026c610a63565b6040516102799190613aec565b60405180910390f35b61029c60048036036102979190810190612c4d565b610a70565b005b6102b860048036036102b39190810190612e5b565b610a93565b005b6102d460048036036102cf9190810190612d53565b610ad6565b6040516102e19190613aec565b60405180910390f35b61030460048036036102ff9190810190612eaf565b610b49565b005b610320600480360361031b9190810190612d53565b610b6c565b60405161032d91906138c9565b60405180910390f35b610350600480360361034b9190810190612c4d565b610c00565b005b61035a610c20565b60405161036791906138e4565b60405180910390f35b61038a60048036036103859190810190612f80565b610c46565b6040516103979190613aec565b60405180910390f35b6103ba60048036036103b59190810190612f80565b610c7a565b6040516103c7919061381e565b60405180910390f35b6103ea60048036036103e59190810190612d8f565b610cb7565b6040516103f791906138c9565b60405180910390f35b61041a60048036036104159190810190612be8565b610fa3565b6040516104279190613aec565b60405180910390f35b610438610ff3565b604051610445919061381e565b60405180910390f35b61045661101c565b60405161046391906138ff565b60405180910390f35b61048660048036036104819190810190612d17565b6110be565b005b6104a2600480360361049d9190810190612fa9565b6111f4565b005b6104be60048036036104b99190810190612c9c565b6113a2565b005b6104da60048036036104d59190810190612f80565b6113c8565b6040516104e791906138ff565b60405180910390f35b6104f861148f565b60405161050591906138ff565b60405180910390f35b61052860048036036105239190810190612c11565b611531565b60405161053591906138c9565b60405180910390f35b61055860048036036105539190810190612be8565b6115c5565b005b6105626117d1565b60405161056f9190613aec565b60405180910390f35b600060016000837bffffffffffffffffffffffffffffffffffffffffffffffffffffffff19167bffffffffffffffffffffffffffffffffffffffffffffffffffffffff1916815260200190815260200160002060009054906101000a900460ff169050919050565b6060600f8054600181600116156101000203166002900480601f0160208091040260200160405190810160405280929190818152602001828054600181600116156101000203166002900480156106785780601f1061064d57610100808354040283529160200191610678565b820191906000526020600020905b81548152906001019060200180831161065b57829003601f168201915b5050505050905090565b60006003600083815260200190815260200160002060009054906101000a900473ffffffffffffffffffffffffffffffffffffffff169050919050565b8173ffffffffffffffffffffffffffffffffffffffff166002600083815260200190815260200160002060009054906101000a900473ffffffffffffffffffffffffffffffffffffffff1673ffffffffffffffffffffffffffffffffffffffff161415610761576040517f08c379a000000000000000000000000000000000000000000000000000000000815260040161075890613a41565b60405180910390fd5b3373ffffffffffffffffffffffffffffffffffffffff166002600083815260200190815260200160002060009054906101000a900473ffffffffffffffffffffffffffffffffffffffff1673ffffffffffffffffffffffffffffffffffffffff161415801561080a57506108086002600083815260200190815260200160002060009054906101000a900473ffffffffffffffffffffffffffffffffffffffff1633611531565b155b1561084a576040517f08c379a0000000000000000000000000000000000000000000000000000000008152600401610841906139c1565b60405180910390fd5b816003600083815260200190815260200160002060006101000a81548173ffffffffffffffffffffffffffffffffffffffff021916908373ffffffffffffffffffffffffffffffffffffffff160217905550808273ffffffffffffffffffffffffffffffffffffffff166002600084815260200190815260200160002060009054906101000a900473ffffffffffffffffffffffffffffffffffffffff1673ffffffffffffffffffffffffffffffffffffffff167f8c5be1e5ebec7d5bd14f71427d1e84f3dd0314c0f7b2291e5b200ac8c7c3b92560405160405180910390a45050565b6000809054906101000a900473ffffffffffffffffffffffffffffffffffffffff1673ffffffffffffffffffffffffffffffffffffffff163373ffffffffffffffffffffffffffffffffffffffff16146109bd576040517f08c379a00000000000000000000000000000000000000000000000000000000081526004016109b490613a61565b60405180910390fd5b80600060146101000a81548160ff021916908315150217905550600060149054906101000a900460ff1615610a28577fa777b30ccee12b318cdee0b97171591d7374095dfe371b54d7b134243cee4bbe33604051610a1b9190613839565b60405180910390a1610a60565b7fe82fbbfef30d388417a80f406c828cae08e1fb4a95d43403dbefe6616d78df5433604051610a579190613839565b60405180910390a15b50565b6000600880549050905090565b610a7a33826117de565b610a8357600080fd5b610a8e838383611873565b505050565b610ad2828260006040519080825280601f01601f191660200182016040528015610acc5781602001600182028038833980820191505090505b50610b49565b5050565b6000610ae183610fa3565b8210610aec57600080fd5b600660008473ffffffffffffffffffffffffffffffffffffffff1673ffffffffffffffffffffffffffffffffffffffff1681526020019081526020016000208281548110610b3657fe5b9060005260206000200154905092915050565b6000801b600d60008060001b815260200190815260200160002081905550505050565b60003373ffffffffffffffffffffffffffffffffffffffff16610b8d610ff3565b73ffffffffffffffffffffffffffffffffffffffff1614610be3576040517f08c379a0000000000000000000000000000000000000000000000000000000008152600401610bda90613981565b60405180910390fd5b610bed8383611897565b610bf6826118b8565b6001905092915050565b610c1b838383604051806020016040528060008152506113a2565b505050565b601460009054906101000a900473ffffffffffffffffffffffffffffffffffffffff1681565b6000610c50610a63565b8210610c5b57600080fd5b60088281548110610c6857fe5b90600052602060002001549050919050565b60006002600083815260200190815260200160002060009054906101000a900473ffffffffffffffffffffffffffffffffffffffff169050919050565b60008086868686604051602001610cd194939291906137d0565b604051602081830303815290604052805190602001209050600160156000838152602001908152602001600020600201541415610d43576040517f08c379a0000000000000000000000000000000000000000000000000000000008152600401610d3a90613a81565b60405180910390fd5b601460009054906101000a900473ffffffffffffffffffffffffffffffffffffffff1673ffffffffffffffffffffffffffffffffffffffff166343cd76fc604051806060016040528060405180604001604052808c600060028110610da457fe5b602002015181526020018c600160028110610dbb57fe5b60200201518152508152602001604051806040016040528060405180604001604052808d600060028110610deb57fe5b6020020151600060028110610dfc57fe5b602002015181526020018d600060028110610e1357fe5b6020020151600160028110610e2457fe5b6020020151815250815260200160405180604001604052808d600160028110610e4957fe5b6020020151600060028110610e5a57fe5b602002015181526020018d600160028110610e7157fe5b6020020151600160028110610e8257fe5b6020020151815250815250815260200160405180604001604052808a600060028110610eaa57fe5b602002015181526020018a600160028110610ec157fe5b6020020151815250815250866040518363ffffffff1660e01b8152600401610eea929190613ac1565b60206040518083038186803b158015610f0257600080fd5b505afa158015610f16573d6000803e3d6000fd5b505050506040513d601f19601f82011682018060405250610f3a9190810190612e32565b610f79576040517f08c379a0000000000000000000000000000000000000000000000000000000008152600401610f70906139a1565b60405180910390fd5b610f878333898989896111f4565b6000610f933385610b6c565b9050809250505095945050505050565b6000610fec600460008473ffffffffffffffffffffffffffffffffffffffff1673ffffffffffffffffffffffffffffffffffffffff1681526020019081526020016000206119dc565b9050919050565b60008060009054906101000a900473ffffffffffffffffffffffffffffffffffffffff16905090565b606060108054600181600116156101000203166002900480601f0160208091040260200160405190810160405280929190818152602001828054600181600116156101000203166002900480156110b45780601f10611089576101008083540402835291602001916110b4565b820191906000526020600020905b81548152906001019060200180831161109757829003601f168201915b5050505050905090565b3373ffffffffffffffffffffffffffffffffffffffff168273ffffffffffffffffffffffffffffffffffffffff1614156110f757600080fd5b80600560003373ffffffffffffffffffffffffffffffffffffffff1673ffffffffffffffffffffffffffffffffffffffff16815260200190815260200160002060008473ffffffffffffffffffffffffffffffffffffffff1673ffffffffffffffffffffffffffffffffffffffff16815260200190815260200160002060006101000a81548160ff0219169083151502179055508173ffffffffffffffffffffffffffffffffffffffff163373ffffffffffffffffffffffffffffffffffffffff167f17307eab39ab6107e8899845ad3d59bd9653f200f220920489ca2b5937696c31836040516111e891906138c9565b60405180910390a35050565b6111fc612849565b60405180606001604052808881526020018773ffffffffffffffffffffffffffffffffffffffff1681526020016001815250905060008585858560405160200161124994939291906137d0565b60405160208183030381529060405280519060200120905081601560008381526020019081526020016000206000820151816000015560208201518160010160006101000a81548173ffffffffffffffffffffffffffffffffffffffff021916908373ffffffffffffffffffffffffffffffffffffffff16021790555060408201518160020155905050601382908060018154018082558091505090600182039060005260206000209060030201600090919290919091506000820151816000015560208201518160010160006101000a81548173ffffffffffffffffffffffffffffffffffffffff021916908373ffffffffffffffffffffffffffffffffffffffff160217905550604082015181600201555050507f4eb6cf99c4a7d16c60503cd7a765dcd26857babdf265322b1115b55b502d261f87896040516113909291906138a0565b60405180910390a15050505050505050565b6113ad848484610a70565b6113b9848484846119ea565b6113c257600080fd5b50505050565b60606113d382611b01565b6113dc57600080fd5b601260008381526020019081526020016000208054600181600116156101000203166002900480601f0160208091040260200160405190810160405280929190818152602001828054600181600116156101000203166002900480156114835780601f1061145857610100808354040283529160200191611483565b820191906000526020600020905b81548152906001019060200180831161146657829003601f168201915b50505050509050919050565b606060118054600181600116156101000203166002900480601f0160208091040260200160405190810160405280929190818152602001828054600181600116156101000203166002900480156115275780601f106114fc57610100808354040283529160200191611527565b820191906000526020600020905b81548152906001019060200180831161150a57829003601f168201915b5050505050905090565b6000600560008473ffffffffffffffffffffffffffffffffffffffff1673ffffffffffffffffffffffffffffffffffffffff16815260200190815260200160002060008373ffffffffffffffffffffffffffffffffffffffff1673ffffffffffffffffffffffffffffffffffffffff16815260200190815260200160002060009054906101000a900460ff16905092915050565b6000809054906101000a900473ffffffffffffffffffffffffffffffffffffffff1673ffffffffffffffffffffffffffffffffffffffff163373ffffffffffffffffffffffffffffffffffffffff1614611654576040517f08c379a000000000000000000000000000000000000000000000000000000000815260040161164b90613a61565b60405180910390fd5b600073ffffffffffffffffffffffffffffffffffffffff163373ffffffffffffffffffffffffffffffffffffffff1614156116c4576040517f08c379a00000000000000000000000000000000000000000000000000000000081526004016116bb90613941565b60405180910390fd5b808073ffffffffffffffffffffffffffffffffffffffff163373ffffffffffffffffffffffffffffffffffffffff1614611733576040517f08c379a000000000000000000000000000000000000000000000000000000000815260040161172a90613a21565b60405180910390fd5b816000806101000a81548173ffffffffffffffffffffffffffffffffffffffff021916908373ffffffffffffffffffffffffffffffffffffffff1602179055508173ffffffffffffffffffffffffffffffffffffffff163373ffffffffffffffffffffffffffffffffffffffff167f8be0079c531659141344cd1fd0a4f28419497f9722a3daafe3b4186f6b6457e060405160405180910390a35050565b6000601380549050905090565b6000806117ea83610c7a565b90508073ffffffffffffffffffffffffffffffffffffffff168473ffffffffffffffffffffffffffffffffffffffff16148061185957508373ffffffffffffffffffffffffffffffffffffffff1661184184610682565b73ffffffffffffffffffffffffffffffffffffffff16145b8061186a57506118698185611531565b5b91505092915050565b61187e838383611b73565b6118888382611dcd565b6118928282611f6b565b505050565b6118a18282612032565b6118ab8282611f6b565b6118b4816121e3565b5050565b6118c181611b01565b611900576040517f08c379a00000000000000000000000000000000000000000000000000000000081526004016118f790613aa1565b60405180910390fd5b606061190b8261222f565b90506119b160118054600181600116156101000203166002900480601f0160208091040260200160405190810160405280929190818152602001828054600181600116156101000203166002900480156119a65780601f1061197b576101008083540402835291602001916119a6565b820191906000526020600020905b81548152906001019060200180831161198957829003601f168201915b50505050508261235c565b6012600084815260200190815260200160002090805190602001906119d7929190612880565b505050565b600081600001549050919050565b6000611a0b8473ffffffffffffffffffffffffffffffffffffffff166123a0565b611a185760019050611af9565b60008473ffffffffffffffffffffffffffffffffffffffff1663150b7a02338887876040518563ffffffff1660e01b8152600401611a599493929190613854565b602060405180830381600087803b158015611a7357600080fd5b505af1158015611a87573d6000803e3d6000fd5b505050506040513d601f19601f82011682018060405250611aab9190810190612f57565b905063150b7a0260e01b7bffffffffffffffffffffffffffffffffffffffffffffffffffffffff1916817bffffffffffffffffffffffffffffffffffffffffffffffffffffffff1916149150505b949350505050565b6000806002600084815260200190815260200160002060009054906101000a900473ffffffffffffffffffffffffffffffffffffffff169050600073ffffffffffffffffffffffffffffffffffffffff168173ffffffffffffffffffffffffffffffffffffffff161415915050919050565b8273ffffffffffffffffffffffffffffffffffffffff166002600083815260200190815260200160002060009054906101000a900473ffffffffffffffffffffffffffffffffffffffff1673ffffffffffffffffffffffffffffffffffffffff1614611c14576040517f08c379a0000000000000000000000000000000000000000000000000000000008152600401611c0b90613a01565b60405180910390fd5b600073ffffffffffffffffffffffffffffffffffffffff168273ffffffffffffffffffffffffffffffffffffffff161415611c84576040517f08c379a0000000000000000000000000000000000000000000000000000000008152600401611c7b906139e1565b60405180910390fd5b611c8d816123eb565b611cd4600460008473ffffffffffffffffffffffffffffffffffffffff1673ffffffffffffffffffffffffffffffffffffffff1681526020019081526020016000206124a9565b611d1b600460008573ffffffffffffffffffffffffffffffffffffffff1673ffffffffffffffffffffffffffffffffffffffff1681526020019081526020016000206124bf565b816002600083815260200190815260200160002060006101000a81548173ffffffffffffffffffffffffffffffffffffffff021916908373ffffffffffffffffffffffffffffffffffffffff160217905550808273ffffffffffffffffffffffffffffffffffffffff168473ffffffffffffffffffffffffffffffffffffffff167fddf252ad1be2c89b69c2b068fc378daa952ba7f163c4a11628f55a4df523b3ef60405160405180910390a4505050565b6000611e256001600660008673ffffffffffffffffffffffffffffffffffffffff1673ffffffffffffffffffffffffffffffffffffffff168152602001908152602001600020805490506124e290919063ffffffff16565b9050600060076000848152602001908152602001600020549050818114611f12576000600660008673ffffffffffffffffffffffffffffffffffffffff1673ffffffffffffffffffffffffffffffffffffffff1681526020019081526020016000208381548110611e9257fe5b9060005260206000200154905080600660008773ffffffffffffffffffffffffffffffffffffffff1673ffffffffffffffffffffffffffffffffffffffff1681526020019081526020016000208381548110611eea57fe5b9060005260206000200181905550816007600083815260200190815260200160002081905550505b600660008573ffffffffffffffffffffffffffffffffffffffff1673ffffffffffffffffffffffffffffffffffffffff168152602001908152602001600020805480919060019003611f649190612900565b5050505050565b600660008373ffffffffffffffffffffffffffffffffffffffff1673ffffffffffffffffffffffffffffffffffffffff168152602001908152602001600020805490506007600083815260200190815260200160002081905550600660008373ffffffffffffffffffffffffffffffffffffffff1673ffffffffffffffffffffffffffffffffffffffff1681526020019081526020016000208190806001815401808255809150509060018203906000526020600020016000909192909190915055505050565b61203b81611b01565b1561207b576040517f08c379a000000000000000000000000000000000000000000000000000000000815260040161207290613921565b60405180910390fd5b600073ffffffffffffffffffffffffffffffffffffffff168273ffffffffffffffffffffffffffffffffffffffff1614156120eb576040517f08c379a00000000000000000000000000000000000000000000000000000000081526004016120e290613961565b60405180910390fd5b816002600083815260200190815260200160002060006101000a81548173ffffffffffffffffffffffffffffffffffffffff021916908373ffffffffffffffffffffffffffffffffffffffff160217905550612184600460008473ffffffffffffffffffffffffffffffffffffffff1673ffffffffffffffffffffffffffffffffffffffff1681526020019081526020016000206124a9565b808273ffffffffffffffffffffffffffffffffffffffff163373ffffffffffffffffffffffffffffffffffffffff167fddf252ad1be2c89b69c2b068fc378daa952ba7f163c4a11628f55a4df523b3ef60405160405180910390a45050565b6008805490506009600083815260200190815260200160002081905550600881908060018154018082558091505090600182039060005260206000200160009091929091909150555050565b60606000821415612277576040518060400160405280600181526020017f30000000000000000000000000000000000000000000000000000000000000008152509050612357565b600082905060005b600082146122a1578080600101915050600a828161229957fe5b04915061227f565b6060816040519080825280601f01601f1916602001820160405280156122d65781602001600182028038833980820191505090505b50905060006001830390505b6000861461234f57600a86816122f457fe5b0660300160f81b8282806001900393508151811061230e57fe5b60200101907effffffffffffffffffffffffffffffffffffffffffffffffffffffffffffff1916908160001a905350600a868161234757fe5b0495506122e2565b819450505050505b919050565b6060612398838360405180602001604052806000815250604051806020016040528060008152506040518060200160405280600081525061252c565b905092915050565b60008060007fc5d2460186f7233c927e7db2dcc703c0e500b653ca82273b7bfad8045d85a47060001b9050833f91508082141580156123e257506000801b8214155b92505050919050565b600073ffffffffffffffffffffffffffffffffffffffff166003600083815260200190815260200160002060009054906101000a900473ffffffffffffffffffffffffffffffffffffffff1673ffffffffffffffffffffffffffffffffffffffff16146124a65760006003600083815260200190815260200160002060006101000a81548173ffffffffffffffffffffffffffffffffffffffff021916908373ffffffffffffffffffffffffffffffffffffffff1602179055505b50565b6001816000016000828254019250508190555050565b6124d7600182600001546124e290919063ffffffff16565b816000018190555050565b600061252483836040518060400160405280601e81526020017f536166654d6174683a207375627472616374696f6e206f766572666c6f7700008152506127ee565b905092915050565b6060808690506060869050606086905060608690506060869050606081518351855187518951010101016040519080825280601f01601f1916602001820160405280156125885781602001600182028038833980820191505090505b509050606081905060008090506000809050600090505b885181101561260d578881815181106125b457fe5b602001015160f81c60f81b8383806001019450815181106125d157fe5b60200101907effffffffffffffffffffffffffffffffffffffffffffffffffffffffffffff1916908160001a905350808060010191505061259f565b600090505b87518110156126805787818151811061262757fe5b602001015160f81c60f81b83838060010194508151811061264457fe5b60200101907effffffffffffffffffffffffffffffffffffffffffffffffffffffffffffff1916908160001a9053508080600101915050612612565b600090505b86518110156126f35786818151811061269a57fe5b602001015160f81c60f81b8383806001019450815181106126b757fe5b60200101907effffffffffffffffffffffffffffffffffffffffffffffffffffffffffffff1916908160001a9053508080600101915050612685565b600090505b85518110156127665785818151811061270d57fe5b602001015160f81c60f81b83838060010194508151811061272a57fe5b60200101907effffffffffffffffffffffffffffffffffffffffffffffffffffffffffffff1916908160001a90535080806001019150506126f8565b600090505b84518110156127d95784818151811061278057fe5b602001015160f81c60f81b83838060010194508151811061279d57fe5b60200101907effffffffffffffffffffffffffffffffffffffffffffffffffffffffffffff1916908160001a905350808060010191505061276b565b82995050505050505050505095945050505050565b6000838311158290612836576040517f08c379a000000000000000000000000000000000000000000000000000000000815260040161282d91906138ff565b60405180910390fd5b5060008385039050809150509392505050565b604051806060016040528060008152602001600073ffffffffffffffffffffffffffffffffffffffff168152602001600081525090565b828054600181600116156101000203166002900490600052602060002090601f016020900481019282601f106128c157805160ff19168380011785556128ef565b828001600101855582156128ef579182015b828111156128ee5782518255916020019190600101906128d3565b5b5090506128fc919061292c565b5090565b81548183558181111561292757818360005260206000209182019101612926919061292c565b5b505050565b61294e91905b8082111561294a576000816000905550600101612932565b5090565b90565b60008135905061296081613df2565b92915050565b600082601f83011261297757600080fd5b600261298a61298582613b34565b613b07565b915081838560408402820111156129a057600080fd5b60005b838110156129d057816129b688826129da565b8452602084019350604083019250506001810190506129a3565b5050505092915050565b600082601f8301126129eb57600080fd5b60026129fe6129f982613b56565b613b07565b91508183856020840282011115612a1457600080fd5b60005b83811015612a445781612a2a8882612bd3565b845260208401935060208301925050600181019050612a17565b5050505092915050565b600082601f830112612a5f57600080fd5b6002612a72612a6d82613b78565b613b07565b91508183856020840282011115612a8857600080fd5b60005b83811015612ab85781612a9e8882612bd3565b845260208401935060208301925050600181019050612a8b565b5050505092915050565b600081359050612ad181613e09565b92915050565b600081519050612ae681613e09565b92915050565b600081359050612afb81613e20565b92915050565b600081359050612b1081613e37565b92915050565b600081519050612b2581613e37565b92915050565b600082601f830112612b3c57600080fd5b8135612b4f612b4a82613b9a565b613b07565b91508082526020830160208301858383011115612b6b57600080fd5b612b76838284613d9f565b50505092915050565b600082601f830112612b9057600080fd5b8135612ba3612b9e82613bc6565b613b07565b91508082526020830160208301858383011115612bbf57600080fd5b612bca838284613d9f565b50505092915050565b600081359050612be281613e4e565b92915050565b600060208284031215612bfa57600080fd5b6000612c0884828501612951565b91505092915050565b60008060408385031215612c2457600080fd5b6000612c3285828601612951565b9250506020612c4385828601612951565b9150509250929050565b600080600060608486031215612c6257600080fd5b6000612c7086828701612951565b9350506020612c8186828701612951565b9250506040612c9286828701612bd3565b9150509250925092565b60008060008060808587031215612cb257600080fd5b6000612cc087828801612951565b9450506020612cd187828801612951565b9350506040612ce287828801612bd3565b925050606085013567ffffffffffffffff811115612cff57600080fd5b612d0b87828801612b2b565b91505092959194509250565b60008060408385031215612d2a57600080fd5b6000612d3885828601612951565b9250506020612d4985828601612ac2565b9150509250929050565b60008060408385031215612d6657600080fd5b6000612d7485828601612951565b9250506020612d8585828601612bd3565b9150509250929050565b60008060008060006101608688031215612da857600080fd5b6000612db688828901612a4e565b9550506040612dc788828901612966565b94505060c0612dd888828901612a4e565b935050610100612dea88828901612a4e565b925050610140612dfc88828901612bd3565b9150509295509295909350565b600060208284031215612e1b57600080fd5b6000612e2984828501612ac2565b91505092915050565b600060208284031215612e4457600080fd5b6000612e5284828501612ad7565b91505092915050565b60008060408385031215612e6e57600080fd5b6000612e7c85828601612aec565b925050602083013567ffffffffffffffff811115612e9957600080fd5b612ea585828601612b7f565b9150509250929050565b600080600060608486031215612ec457600080fd5b6000612ed286828701612aec565b935050602084013567ffffffffffffffff811115612eef57600080fd5b612efb86828701612b7f565b925050604084013567ffffffffffffffff811115612f1857600080fd5b612f2486828701612b2b565b9150509250925092565b600060208284031215612f4057600080fd5b6000612f4e84828501612b01565b91505092915050565b600060208284031215612f6957600080fd5b6000612f7784828501612b16565b91505092915050565b600060208284031215612f9257600080fd5b6000612fa084828501612bd3565b91505092915050565b6000806000806000806101808789031215612fc357600080fd5b6000612fd189828a01612bd3565b9650506020612fe289828a01612951565b9550506040612ff389828a01612a4e565b945050608061300489828a01612966565b93505061010061301689828a01612a4e565b92505061014061302889828a01612a4e565b9150509295509295509295565b600061304183836131f7565b60408301905092915050565b600061305983836137a3565b60208301905092915050565b600061307183836137c1565b60208301905092915050565b61308681613d45565b82525050565b61309581613cc7565b82525050565b6130a481613c10565b6130ae8184613c6e565b92506130b982613bf2565b8060005b838110156130ea5781516130d18782613035565b96506130dc83613c47565b9250506001810190506130bd565b505050505050565b6130fb81613c26565b6131058184613c84565b925061311082613c06565b8060005b83811015613141578151613128878261304d565b965061313383613c61565b925050600181019050613114565b505050505050565b61315281613c26565b61315c8184613c9a565b925061316782613c06565b8060005b8381101561319857815161317f8782613065565b965061318a83613c61565b92505060018101905061316b565b505050505050565b6131a981613c1b565b6131b38184613c79565b92506131be82613bfc565b8060005b838110156131ef5781516131d6878261304d565b96506131e183613c54565b9250506001810190506131c2565b505050505050565b61320081613c1b565b61320a8184613c8f565b925061321582613bfc565b8060005b8381101561324657815161322d8782613065565b965061323883613c54565b925050600181019050613219565b505050505050565b61325781613cd9565b82525050565b600061326882613c31565b6132728185613ca5565b9350613282818560208601613dae565b61328b81613de1565b840191505092915050565b61329f81613d57565b82525050565b60006132b082613c3c565b6132ba8185613cb6565b93506132ca818560208601613dae565b6132d381613de1565b840191505092915050565b60006132eb601c83613cb6565b91507f54686520746f6b656e20494420616c72656164792065786973747321000000006000830152602082019050919050565b600061332b602083613cb6565b91507f4552433732314d696e7461626c655f4d75737442655265616c416464726573736000830152602082019050919050565b600061336b601f83613cb6565b91507f54686520676976656e2061646472657373206973206e6f742076616c696421006000830152602082019050919050565b60006133ab602683613cb6565b91507f46756e6374696f6e206973206e6f74206265696e672063616c6c65642062792060008301527f6f776e65722100000000000000000000000000000000000000000000000000006020830152604082019050919050565b6000613411602f83613cb6565b91507f536f6c7574696f6e2077726f6e6721204d7573742070726f766964652061206360008301527f6f727265637420736f6c7574696f6e00000000000000000000000000000000006020830152604082019050919050565b6000613477600d83613cb6565b91507f4e6f7420617070726f76656421000000000000000000000000000000000000006000830152602082019050919050565b60006134b7601683613cb6565b91507f546f206164647265737320697320696e76616c696421000000000000000000006000830152602082019050919050565b60006134f7602283613cb6565b91507f46726f6d2061646472657373206973206e6f74206f776e6572206f6620746f6b60008301527f656e0000000000000000000000000000000000000000000000000000000000006020830152604082019050919050565b600061355d601f83613cb6565b91507f4552433732314d696e7461626c655f4e6f5472616e73666572546f53656c66006000830152602082019050919050565b600061359d603283613cb6565b91507f556e61626c6520746f20617070726f76652073696e636520616464726573732060008301527f6973206f776e6572206f6620746f6b656e2100000000000000000000000000006020830152604082019050919050565b6000613603602483613cb6565b91507f4552433732314d696e7461626c655f4f6e6c794f776e65724973417574686f7260008301527f697a6564000000000000000000000000000000000000000000000000000000006020830152604082019050919050565b6000613669603083613cb6565b91507f536f6c7574696f6e206e6f7420756e6971756521204d7573742070726f76696460008301527f652061206e657720736f6c7574696f6e000000000000000000000000000000006020830152604082019050919050565b60006136cf601583613cb6565b91507f546f6b656e20646f6573206e6f742065786973742100000000000000000000006000830152602082019050919050565b60408201600082015161371860008501826137a3565b50602082015161372b60208501826137a3565b50505050565b60808201600082015161374760008501826131a0565b50602082015161375a60408501826131a0565b50505050565b610100820160008201516137776000850182613702565b50602082015161378a6040850182613731565b50604082015161379d60c0850182613702565b50505050565b6137ac81613d3b565b82525050565b6137bb81613d3b565b82525050565b6137ca81613d3b565b82525050565b60006137dc8287613149565b6040820191506137ec828661309b565b6080820191506137fc8285613149565b60408201915061380c8284613149565b60408201915081905095945050505050565b6000602082019050613833600083018461308c565b92915050565b600060208201905061384e600083018461307d565b92915050565b6000608082019050613869600083018761307d565b613876602083018661308c565b61388360408301856137b2565b8181036060830152613895818461325d565b905095945050505050565b60006040820190506138b5600083018561308c565b6138c260208301846137b2565b9392505050565b60006020820190506138de600083018461324e565b92915050565b60006020820190506138f96000830184613296565b92915050565b6000602082019050818103600083015261391981846132a5565b905092915050565b6000602082019050818103600083015261393a816132de565b9050919050565b6000602082019050818103600083015261395a8161331e565b9050919050565b6000602082019050818103600083015261397a8161335e565b9050919050565b6000602082019050818103600083015261399a8161339e565b9050919050565b600060208201905081810360008301526139ba81613404565b9050919050565b600060208201905081810360008301526139da8161346a565b9050919050565b600060208201905081810360008301526139fa816134aa565b9050919050565b60006020820190508181036000830152613a1a816134ea565b9050919050565b60006020820190508181036000830152613a3a81613550565b9050919050565b60006020820190508181036000830152613a5a81613590565b9050919050565b60006020820190508181036000830152613a7a816135f6565b9050919050565b60006020820190508181036000830152613a9a8161365c565b9050919050565b60006020820190508181036000830152613aba816136c2565b9050919050565b600061014082019050613ad76000830185613760565b613ae56101008301846130f2565b9392505050565b6000602082019050613b0160008301846137b2565b92915050565b6000604051905081810181811067ffffffffffffffff82111715613b2a57600080fd5b8060405250919050565b600067ffffffffffffffff821115613b4b57600080fd5b602082029050919050565b600067ffffffffffffffff821115613b6d57600080fd5b602082029050919050565b600067ffffffffffffffff821115613b8f57600080fd5b602082029050919050565b600067ffffffffffffffff821115613bb157600080fd5b601f19601f8301169050602081019050919050565b600067ffffffffffffffff821115613bdd57600080fd5b601f19601f8301169050602081019050919050565b6000819050919050565b6000819050919050565b6000819050919050565b600060029050919050565b600060029050919050565b600060029050919050565b600081519050919050565b600081519050919050565b6000602082019050919050565b6000602082019050919050565b6000602082019050919050565b600081905092915050565b600081905092915050565b600081905092915050565b600081905092915050565b600081905092915050565b600082825260208201905092915050565b600082825260208201905092915050565b6000613cd282613d1b565b9050919050565b60008115159050919050565b6000819050919050565b60007fffffffff0000000000000000000000000000000000000000000000000000000082169050919050565b600073ffffffffffffffffffffffffffffffffffffffff82169050919050565b6000819050919050565b6000613d5082613d7b565b9050919050565b6000613d6282613d69565b9050919050565b6000613d7482613d1b565b9050919050565b6000613d8682613d8d565b9050919050565b6000613d9882613d1b565b9050919050565b82818337600083830152505050565b60005b83811015613dcc578082015181840152602081019050613db1565b83811115613ddb576000848401525b50505050565b6000601f19601f8301169050919050565b613dfb81613cc7565b8114613e0657600080fd5b50565b613e1281613cd9565b8114613e1d57600080fd5b50565b613e2981613ce5565b8114613e3457600080fd5b50565b613e4081613cef565b8114613e4b57600080fd5b50565b613e5781613d3b565b8114613e6257600080fd5b5056fea365627a7a723158201b77c596b764731464cc8e785220ee2fcaa1494ba25b86398b2c5c878514c4896c6578706572696d656e74616cf564736f6c63430005110040446563656e7472616c697a6564205265616c20457374617465204d61726b6574706c61636568747470733a2f2f73332d75732d776573742d322e616d617a6f6e6177732e636f6d2f756461636974792d626c6f636b636861696e2f63617073746f6e652f",
  "source": "// SPDX-License-Identifier: MIT\npragma solidity >=0.4.21 <0.6.0;\npragma experimental ABIEncoderV2;\nimport \"./verifier.sol\";\nimport \"./ERC721Mintable.sol\";\n\ncontract SquareVerifier is Verifier {}\n\ncontract SolnSquareVerifier is CustomERC721Token {\n    struct solutions {\n        uint256 index;\n        address addressSol;\n        uint256 solutionProvided;\n    }\n\n    solutions[] solutionsArray;\n\n    SquareVerifier public squareVerifier;\n\n    // mapping that stores unique solutions submitted\n    mapping(bytes32 => solutions) uniqueSolutions;\n\n    // event to emit when a solution is added\n    event solutionAdded(address from, uint256 index1);\n\n    constructor(address verifier) public {\n        squareVerifier = SquareVerifier(verifier);\n    }\n\n    function addSolution(\n        uint256 _index,\n        address _address,\n        uint256[2] memory A,\n        uint256[2][2] memory B,\n        uint256[2] memory C,\n        uint256[2] memory INPUT\n    ) public {\n        solutions memory Solution = solutions({\n            index: _index,\n            addressSol: _address,\n            solutionProvided: 1\n        });\n        bytes32 uniqueKey = keccak256(abi.encodePacked(A, B, C, INPUT));\n        uniqueSolutions[uniqueKey] = Solution;\n        solutionsArray.push(Solution);\n        emit solutionAdded(_address, _index);\n    }\n\n    function getSolutionsCount() external view returns (uint256) {\n        return solutionsArray.length;\n    }\n\n    // function to mint new NFT when solution has been verified\n    function mintToken(\n        uint256[2] memory A,\n        uint256[2][2] memory B,\n        uint256[2] memory C,\n        uint256[2] memory INPUT,\n        uint256 ID\n    ) public returns (bool) {\n        bytes32 uniqueKeyCheck = keccak256(abi.encodePacked(A, B, C, INPUT));\n        if (uniqueSolutions[uniqueKeyCheck].solutionProvided == 1) {\n            revert(\"Solution not unique! Must provide a new solution\");\n        }\n        if (\n            !squareVerifier.verifyTx(\n                Verifier.Proof(\n                    Pairing.G1Point(A[0], A[1]),\n                    Pairing.G2Point([B[0][0], B[0][1]], [B[1][0], B[1][1]]),\n                    Pairing.G1Point(C[0], C[1])\n                ),\n                INPUT\n            )\n        ) {\n            revert(\"Solution wrong! Must provide a correct solution\");\n        }\n        addSolution(ID, msg.sender, A, B, C, INPUT);\n        bool success = mint(msg.sender, ID);\n        return success;\n    }\n}\n",
  "sourcePath": "/Users/buuthongtran/web3projects/Decentralized-Real-Estate-Market/eth-contracts/contracts/SolnSquareVerifier.sol",
  "compiler": {
    "name": "solc",
    "version": "0.5.17+commit.d19bba13.Emscripten.clang"
  },
  "schemaVersion": "3.4.8",
  "updatedAt": "2022-07-12T00:59:19.106Z",
  "devdoc": {
    "methods": {
      "__callback(bytes32,string)": {
        "details": "The following `__callback` functions are just placeholders ideally     meant to be defined in child contract when proofs are used.     The function bodies simply silence compiler warnings."
      },
      "isApprovedForAll(address,address)": {
        "details": "Tells whether an operator is approved by a given owner",
        "params": {
          "operator": "operator address which you want to query the approval of",
          "owner": "owner address which you want to query the approval of"
        },
        "return": "bool whether the given operator is approved by the given owner"
      },
      "setApprovalForAll(address,bool)": {
        "details": "Sets or unsets the approval of a given operator An operator is allowed to transfer all tokens of the sender on their behalf",
        "params": {
          "approved": "representing the status of the approval to be set",
          "to": "operator address to set the approval"
        }
      },
      "supportsInterface(bytes4)": {
        "details": "implement supportsInterface(bytes4) using a lookup table"
      },
      "tokenByIndex(uint256)": {
        "details": "Gets the token ID at a given index of all the tokens in this contract Reverts if the index is greater or equal to the total number of tokens",
        "params": {
          "index": "uint256 representing the index to be accessed of the tokens list"
        },
        "return": "uint256 token ID at the given index of the tokens list"
      },
      "tokenOfOwnerByIndex(address,uint256)": {
        "details": "Gets the token ID at a given index of the tokens list of the requested owner",
        "params": {
          "index": "uint256 representing the index to be accessed of the requested tokens list",
          "owner": "address owning the tokens list to be accessed"
        },
        "return": "uint256 token ID at the given index of the tokens list owned by the requested address"
      },
      "totalSupply()": {
        "details": "Gets the total amount of tokens stored by the contract",
        "return": "uint256 representing the total amount of tokens"
      }
    }
  },
  "userdoc": {
    "methods": {}
  }
}